:020000040800F2
:100000000000022029260008350D0008370D0008E1
:10001000390D00083B0D00083D0D000800000000F0
:100020000000000000000000000000003F0D00087C
:10003000410D000800000000430D0008450D0008B8
:100040007926000879260008792600087926000814
:1000500079260008792600087D0600087926000820
:1000600079260008792600087926000879260008F4
:1000700079260008792600087926000879260008E4
:100080004D0D000879260008792600087926000819
:1000900079260008792600087926000879260008C4
:1000A00079260008792600087926000879260008B4
:1000B00079260008792600087926000879260008A4
:1000C0007926000879260008792600087926000894
:1000D0007926000879260008792600087926000884
:1000E0007926000879260008792600087926000874
:1000F0007926000879260008792600087926000864
:100100007926000879260008792600087926000853
:100110007926000879260008792600087926000843
:100120007926000879260008792600087926000833
:100130007926000800000000000000007926000871
:100140007926000879260008792600087926000813
:100150007926000879260008792600087926000803
:1001600079260008792600087926000879260008F3
:10017000792600087926000879260008000000008A
:1001800000000000792600080000000000000000C8
:100190007926000800000000000000007926000811
:1001A00000000000000000000000000079260008A8
:1001B00079260008792600087926000879260008A3
:0401C0007926000894
:1001C40010B5054C237833B9044B13B10448AFF38D
:1001D40000800123237010BD5C000020000000009B
:1001E400D426000808B5034B1BB103490348AFF3F9
:1001F400008008BD0000000060000020D426000834
:1002040053B94AB9002908BF00281CBF4FF0FF3179
:100214004FF0FF3000F088B9ADF1080C6DE904CE61
:1002240000F006F8DDF804E0DDE9022304B07047CD
:100234002DE9F047089D8E4604468846002B4AD196
:100244008A42174662D9B2FA82F64EB1C6F1200349
:1002540001FA06F820FA03F3B74043EA0808B44069
:100264004FEA174E1FFA87FCB8FBFEF1230C0EFB76
:10027400118843EA084301FB0CF29A4209D9FB189E
:1002840001F1FF3080F0EA809A4240F2E7800239BF
:100294003B449A1AA3B2B2FBFEF00EFB102243EACF
:1002A400024300FB0CFC9C4509D9FB1800F1FF320A
:1002B40080F0D6809C4540F2D3803B44023840EA2B
:1002C4000140A3EB0C0300211DB1F3400022C5E95A
:1002D4000032BDE8F0878B4205D90DB1C5E90001B4
:1002E40000210846F5E7B3FA83F1002946D17345A6
:1002F40002D3824200F20581841A6EEB03020120CC
:100304009046002DE5D0C5E90048E2E7002A00F058
:100314009080B2FA82F6002E40F0A4808A1A030C70
:100324004FEA174E80B2BCB20121B2FBFEFC0EFBB9
:100334001C2243EA024304FB0CF29A4207D9FB183D
:100344000CF1FF3802D29A4200F2E080C4469B1AB4
:10035400B3FBFEF20EFB123340EA034302FB04F448
:100364009C4207D9FB1802F1FF3002D29C4200F2F2
:10037400CA8002461B1B42EA0C40A5E7C1F12006D5
:100384008B4022FA06F71F430EFA01F420FA06F313
:100394002EFA06FE4FEA1749234300FA01F81FFA22
:1003A40087FCBEFBF9F01C0C09FB10EE44EA0E447A
:1003B40000FB0CFEA64502FA01F209D93C1900F132
:1003C400FF3A80F09C80A64540F2998002383C4474
:1003D400A4EB0E041FFA83FEB4FBF9F309FB1344E8
:1003E4004EEA044403FB0CFCA44508D93C1903F170
:1003F400FF3E80F08280A4457FD9023B3C4443EA1F
:100404000040A4EB0C04A0FB02EC64457346E146F7
:1004140062D35FD05DB1B8EB030264EB090404FA64
:1004240006F622FA01F31E43CC40C5E9006400211C
:100434004FE7B1FBF2FC010C41EA0E4180B240EA05
:1004440001423B4638463C46B846BE462026B1FBF0
:10045400F7F1A2EB080241EA0C4166E7014618E70E
:1004640010462CE7C6F120022EFA02F3B740B14041
:1004740020FA02F24FEA174E0A43B3FBFEF8BCB26D
:100484000EFB1833110C41EA034108FB04F9B04098
:1004940089454FEA104380B23ED9791808F1FF3CF0
:1004A40001D289451FD8A1EB0901B1FBFEF909FB73
:1004B40004F80EFB191192B242EA0142424529D2D4
:1004C400BA1809F1FF31C4D24245C2D2A9F10201DE
:1004D4003A44BEE7F0459DD2BEEB02036CEB070C39
:1004E4000138E14696E7A7EB09094944A8F1020C53
:1004F400B1FBFEF909FB04F8DBE773467FE75046DE
:1005040066E70846FDE63B44023A33E7ACF1020CE9
:100514003B441CE749469CE7A1EB0901C446B1FBF7
:10052400FEF909FB04F8C4E7704700BF2DE9F04F5A
:1005340089B00024039404940594069407940094C9
:100544002F4B1A6B42F080021A631A6B02F080027E
:100554000092009A01941A6B42F001021A631A6B1A
:1005640002F001020192019A02941A6B42F0020213
:100574001A631B6B03F002030293029B4FF4404B7C
:10058400CDF80CB001260496DFF87CA003A95046F0
:1005940001F04CFC4FF44079CDF80C90DFF86C80FE
:1005A40003A9404601F042FC4FF410470397154D50
:1005B40003A9284601F03AFC22465946504601F068
:1005C4002CFD22464946404601F027FD2246394685
:1005D400284601F022FD03964FF4881304930596F0
:1005E40003A9284601F022FC22460221062001F03C
:1005F40095FF062001F0A2FF09B0BDE8F08F00BF0F
:10060400003802400000024000080240000402409A
:1006140000B583B000210191094B1A6B42F400121A
:100624001A631B6B03F400130193019B0A46102009
:1006340001F074FF102001F081FF03B05DF804FBAA
:100644000038024010B501F0E1FC012802D000247A
:10065400204610BD044601F0D5FF064B1B68C01AA6
:10066400B0F5FA7F01D80024F2E701F0CBFF014B8B
:100674001860EDE77800002070B5012001F0D4FC8B
:1006840001212748FFF7DEFF002844D0254B1B68D3
:10069400052B41D00133234A1360224D2A68224B93
:1006A40003EB820393ED007ADFED207A27EE277ABD
:1006B400DFED1F6AC6EE877AFCEEE77A17EE903A12
:1006C4001C4AC2ED007A013B1B4CE360204600F05B
:1006D40009FD2268D36823F40073D360174E3046B3
:1006E40001F0C7FD286842F21073154A12681549D3
:1006F40051F82010304601F087FD2268D36843F496
:100704000073D360012000F053FA2A680E4B53F8AB
:10071400220000F041FA70BD024B00221A60BCE7CF
:10072400000002406C0100203800002000401C46FC
:100734000024744B04000020240100207C000020CD
:1007440000000020200000200800002072B6FEE710
:1007540000B58FB000230A930B930C930D93089369
:1007640009930193029303930493059306930793C8
:1007740036484FF08042026043608360344A126816
:10078400013AC26003618023836100F0ABFC00285E
:1007940050D14FF480530A930AA92C4800F008FE64
:1007A400002849D1294800F0C9FC002846D100237B
:1007B4000893099308A9254800F08CFF00283FD12D
:1007C4000022019202920392059201A91F4800F0AF
:1007D40045FD002836D1002300931E4A116B41F4D5
:1007E40000111163126B02F400120092009A1A486D
:1007F4001A4A02604FF0C062426040228260C360C5
:100804004FF4806202614FF4805242614FF480429F
:1008140082614FF48072C2614FF40032026243621B
:1008240001F08CFC80B9094A0B4B53629A630FB0F8
:100834005DF804FBFFF78AFFFFF788FFFFF786FFE9
:10084400FFF784FFFFF782FFFFF780FF24010020FA
:1008540004000020003802407C0000208860024030
:1008640000B58FB000230A930B930C930D93089358
:1008740009930193029303930493059306930793B7
:100884001E481F4A0260436083604FF4C872C2600E
:100894000361836100F026FC28BB4FF480530A9364
:1008A4000AA9164800F084FDF8B9144800F072FC57
:1008B400E8B900230893099308A9104800F00AFF37
:1008C400B8B960230193002302930393059308228C
:1008D40001A90A4800F0F1FC68B9084800F0A4FA3C
:1008E4000FB05DF804FBFFF731FFFFF72FFFFFF7B1
:1008F4002DFFFFF72BFFFFF729FF00BFDC000020CF
:100904000004004000B595B03422002107A801F08E
:10091400B2FE00230293039304930593069300937A
:10092400194A116C41F080511164126C02F080522A
:100934000092009A019315490A6822F4404242F455
:1009440080420A600A6802F440420192019A02223B
:10095400079201220A9210220B920D9307A801F02C
:1009640043F868B90F230293002103910491059180
:10097400069102A800F0F4FE20B915B05DF804FB5E
:10098400FFF7E4FEFFF7E2FE00380240007000408B
:1009940008B501F011FEFFF7B5FFFFF7C7FDFFF73C
:1009A40037FEFFF7D5FEFFF75BFF194B1A68194BAB
:1009B40003EB820393ED007ADFED177A27EE277AB3
:1009C400DFED166AC6EE877AFCEEE77A144BC3EDC8
:1009D400007A0821134800F0FBFD134C0021204647
:1009E40000F074FD42F21073104A12681049114865
:1009F40001F00AFC00F064F9012000F0D9F80E4877
:100A040000F0CAF82268D36843F40073D360FEE7A9
:100A14006C0100203800002000401C460024744B68
:100A240004000020DC00002024010020000000203D
:100A3400A43403087C000020EC26000882B000EBFC
:100A440040000023019304E000BF00BF019B013379
:100A54000193019B8342F7D302B0704710B5142071
:100A6400FFF7ECFF094CA36943F40043A36114208E
:100A7400FFF7E4FFA36943F00043A3611420FFF7E9
:100A8400DDFFA36943F40043A36110BD00080240E5
:100A940010B504463D4A936943F48043936110F0D2
:100AA400800F41D13A4A936943F00043936114F0B3
:100AB400400F40D0364A936943F48053936114F055
:100AC400200F3ED0334A936943F40073936114F0CA
:100AD400100F3CD02F4A936943F480739361FFF75E
:100AE400BDFF14F0080F38D0294A936943F400433A
:100AF400936114F0040F36D0254A936943F480536C
:100B0400936114F0020F34D0224A936943F40073C2
:100B1400936114F0010F32D01E4A936943F4807339
:100B24009361FFF79BFF10BDA2F50062936943F444
:100B340000439361BBE7164A936943F08053936182
:100B4400BDE7144A936943F000739361BFE7114A08
:100B5400936943F080739361C1E70D4A936943F04D
:100B640000439361C5E70A4A936943F08053936154
:100B7400C7E7084A936943F000739361C9E7054ADC
:100B8400936943F080739361CBE700BF0008024090
:100B9400000002400004024038B50546002403E08A
:100BA400FFF776FF0134E4B2285D0028F8D138BDA0
:100BB40010B504463F4A936943F08043936110F0B3
:100BC400800F45D13C4A936943F00043936114F08C
:100BD400400F44D0384A936943F48053936114F02E
:100BE400200F42D0354A936943F40073936114F0A3
:100BF400100F40D0314A936943F480739361FFF737
:100C04002DFF14F0080F3CD02B4A936943F40043A2
:100C1400936114F0040F3AD0274A936943F4805344
:100C2400936114F0020F38D0244A936943F400739B
:100C3400936114F0010F36D0204A936943F4807312
:100C44009361FFF70BFF40F6B830FFF7F7FE10BDD6
:100C5400A2F50062936943F400439361B7E7164A2F
:100C6400936943F080539361B9E7144A936943F05D
:100C740000739361BBE7114A936943F080739361F6
:100C8400BDE70D4A936943F000439361C1E70A4A03
:100C9400936943F080539361C3E7084A936943F02F
:100CA40000739361C5E7054A936943F080739361C8
:100CB400C7E700BF000802400000024000040240F1
:100CC40008B5194B1A6B42F001021A631A6B42F011
:100CD40002021A631A6B42F004021A63134A13687D
:100CE40043F08243136002F58062136843F4A02347
:100CF400136002F58062136843F0A043136047F267
:100D04003050FFF79BFE3320FFF752FF3220FFF7EE
:100D14004FFF0C20FFF74CFF2820FFF749FF01206D
:100D2400FFF746FF08BD00BF003802400000024044
:100D3400FEE7FEE7FEE7FEE7FEE770477047704711
:100D440008B501F053FC08BD08B5024801F0A4FA47
:100D540008BD00BF7C00002082B0002100910B4B35
:100D64005A6C42F480425A645A6C02F480420092F3
:100D7400009A01911A6C42F080521A641B6C03F0C1
:100D840080530193019B02B0704700BF00380240BA
:100D940010B582B00368B3F1804F04D01E4A934269
:100DA4002CD002B010BD0446002300931B4A116CE2
:100DB40041F001011164126C02F001020092009AE8
:100DC4001748184A02604FF0C06242608360C360F3
:100DD4004FF4806202614FF4805242614FF48042CA
:100DE4008261C3610362436201F0A8F918B90C4B34
:100DF40063629C63D5E7FFF7A9FCF8E7002301933E
:100E0400064B1A6C42F002021A641B6C03F00203D4
:100E14000193019BC5E700BF000400400038024075
:100E24007C0000208860024000B587B00023019355
:100E3400029303930493059302680E4B9A4202D0E3
:100E440007B05DF804FB002300930B4B1A6B42F0D0
:100E540002021A631B6B03F002030093009B01233D
:100E6400019302230293059301A9044800F0DEFFD5
:100E7400E6E700BF000400400038024000040240DE
:100E840030B4036A026A22F0010202624268846991
:100E940024F0730C0C6844EA0C0423F0020C8B68F5
:100EA40043EA0C03114DA84203D005F58065A8421E
:100EB40005D123F00803CD682B4323F004030B4D25
:100EC400A84203D005F58065A84207D122F44072F8
:100ED4004D6945EA020C8A6942EA0C024260846167
:100EE4004A684263036230BC704700BF000001409F
:100EF40030B4036A026A22F4807202624268C469EE
:100F040024F0730C0C6844EA0C0523F400738C6819
:100F140043EA0423114CA04203D004F58064A042A8
:100F240006D123F40063CC6843EA042323F48063EA
:100F34000A4CA04203D004F58064A04207D122F4F5
:100F440040524C6942EA04128C6942EA041242603B
:100F5400C5614A68C263036230BC70470000014047
:100F640030B4036A026A22F4805202624468C2699D
:100F740022F4E6420D6842EA052223F400538D6808
:100F840043EA0533094DA84203D005F58065A8421C
:100F940004D124F480444D6944EA85144460C26158
:100FA4004A680264036230BC704700BF000001401D
:100FB40010B4036A046A24F001040462846924F00E
:100FC400F00C4CEA021223F00A030B438261036221
:100FD4005DF8044B704710B4036A046A24F01004EB
:100FE4000462846924F4704C4CEA023223F0A003B6
:100FF40043EA0113826103625DF8044B704783681E
:1010040023F070030B4343F007038360704770477A
:10101400704700000368324A904212D0B0F1804F0A
:101024000FD0A2F57C4290420BD002F58062904230
:1010340007D002F58062904203D002F578429042D4
:1010440003D123F070034A681343254A90422AD0FF
:10105400B0F1804F27D0A2F57C42904223D002F514
:10106400806290421FD002F5806290421BD002F54C
:101074007842904217D002F57052904213D002F594
:10108400806290420FD002F5806290420BD0A2F5AC
:101094009832904207D002F58062904203D002F564
:1010A4008062904203D123F44073CA68134323F04F
:1010B40080034A6913438A68C2620A688262084AE2
:1010C400904203D002F58062904201D10A69026322
:1010D400026842F004020260012242610360704728
:1010E4000000014040B310B5044690F83D30F3B120
:1010F400022384F83D30214651F8040BFFF78AFFA0
:10110400012384F8463084F83E3084F83F3084F874
:10111400403084F8413084F8423084F8433084F815
:10112400443084F8453084F83D30002010BD80F808
:101134003C30FFF72DFEDBE70120704740B310B5CC
:10114400044690F83D30F3B1022384F83D30214643
:1011540051F8040BFFF75EFF012384F8463084F84E
:101164003E3084F83F3084F8403084F8413084F8CD
:10117400423084F8433084F8443084F8453084F8AD
:101184003D30002010BD80F83C30FFF740FFDBE726
:101194000120704740B310B5044690F83D30F3B1D8
:1011A400022384F83D30214651F8040BFFF732FF47
:1011B400012384F8463084F83E3084F83F3084F8C4
:1011C400403084F8413084F8423084F8433084F865
:1011D400443084F8453084F83D30002010BD80F858
:1011E4003C30FFF715FFDBE70120704730B4036A9A
:1011F400026A22F0100202624468826922F4E64222
:101204000D6842EA052223F020038D6843EA0513A2
:10121400114DA84203D005F58065A84206D123F0FC
:101224008003CD6843EA051323F040030A4DA84226
:1012340003D005F58065A84207D124F440644D69C4
:1012440044EA85048D6944EA8504446082614A68FD
:101254008263036230BC70470000014090F83C3068
:10126400012B28D010B50446012380F83C300C2A09
:101274001CD8DFE802F0071B1B1B0C1B1B1B111BDC
:101284001B1B16000068FFF7FBFD00200FE0006841
:10129400FFF7ACFF00200AE00068FFF729FE0020FA
:1012A40005E00068FFF75CFE002000E00120002359
:1012B40084F83C3010BD0220704738B590F83C30BB
:1012C400012B66D004460D46012380F83C300C2ADD
:1012D4005AD8DFE802F0075959591B59595930595E
:1012E400595944000068FFF7CBFD2268936943F025
:1012F400080393612268936923F0040393612268CD
:10130400936929690B43936100203EE00068FFF76D
:101314006DFF2268936943F40063936122689369C3
:1013240023F48063936122689369296943EA012362
:101334009361002029E00068FFF7DAFD2268D36991
:1013440043F00803D3612268D36923F00403D36113
:101354002268D36929690B43D361002015E0006832
:10136400FFF7FEFD2268D36943F40063D36122686A
:10137400D36923F48063D3612268D369296943EA7A
:101384000123D361002000E00120002384F83C30D5
:1013940038BD0220FCE710B4846824F47F4C42EA90
:1013A40003220A4342EA0C0282605DF8044B704750
:1013B40090F83C30012B78D010B50446012380F816
:1013C4003C30022380F83D300268936823F47F4365
:1013D40023F0770393600B68602B4CD023D8402B09
:1013E40054D011D8202B03D00AD80BB1102B05D11F
:1013F40019462068FFF703FE002028E0012026E0BC
:10140400302BF5D0012022E0502B0AD1CA6849685C
:101414000068FFF7CDFD50212068FFF7F0FD0020A4
:1014240015E0012013E0B3F5805F3AD0B3F5005F17
:1014340014D0702B37D1CB684A6889680068FFF7ED
:10144400AAFF2268936843F0770393600020012386
:1014540084F83D30002384F83C3010BDCB684A68E2
:1014640089680068FFF797FF2268936843F4804314
:1014740093600020EBE7CA6849680068FFF7ABFD9A
:1014840060212068FFF7BBFD0020E0E7CA684968D7
:101494000068FFF78DFD40212068FFF7B0FD0020B4
:1014A400D5E70020D3E70120D1E70220704701F0FF
:1014B4001F014FF0010C0CFA01FC036A23EA0C0330
:1014C4000362036A8A4013430362704710B50446FB
:1014D4000846002942D194F83E30DBB2013B18BFE4
:1014E4000123002B6ED1002851D1022384F83E3011
:1014F400012201462068FFF7DAFF2368334A93424A
:1015040003D002F58062934203D15A6C42F4004244
:101514005A6423682D4A934249D0B3F1804F46D090
:10152400A2F57C42934242D002F5806293423ED0BF
:1015340002F5806293423AD002F57842934236D063
:1015440002F57052934232D0A2F5943293422ED0D7
:101554001A6842F001021A60002032E0042908D01F
:1015640008290DD094F84130DBB2013B18BF0123A8
:10157400B7E794F83F30DBB2013B18BF0123B0E773
:1015840094F84030DBB2013B18BF0123A9E70428DB
:1015940005D0082807D0022384F84130A8E70223A5
:1015A40084F83F30A4E7022384F84030A0E79A6827
:1015B40002F00702062A07D01A6842F001021A60F4
:1015C400002010BD0120FCE70020FAE700000140E4
:1015D40010B504460846002942D194F83E30DBB2E7
:1015E400013B18BF0123002B6ED1002851D10223E7
:1015F40084F83E30012201462068FFF758FF236833
:10160400334A934203D002F58062934203D15A6C69
:1016140042F400425A6423682D4A934249D0B3F1FC
:10162400804F46D0A2F57C42934242D002F58062BC
:1016340093423ED002F5806293423AD002F578425A
:10164400934236D002F57052934232D0A2F59432CE
:1016540093422ED01A6842F001021A60002032E050
:10166400042908D008290DD094F84130DBB2013B9D
:1016740018BF0123B7E794F83F30DBB2013B18BF32
:101684000123B0E794F84030DBB2013B18BF0123DB
:10169400A9E7042805D0082807D0022384F841309C
:1016A400A8E7022384F83F30A4E7022384F84030FB
:1016B400A0E79A6802F00702062A07D01A6842F0E7
:1016C40001021A60002010BD0120FCE70020FAE7A7
:1016D4000000014090F83C20012A3DD010B403469C
:1016E400012280F83C20022280F83D2002685068E4
:1016F400946820F0700C086840EA0C0050601A6886
:10170400164882421AD0B2F1804F17D0A0F57C401F
:10171400824213D000F5806082420FD000F58060D1
:1017240082420BD000F57840824207D000F5705019
:10173400824203D0A0F59430824204D124F0800484
:10174400496821439160012283F83D20002083F8F9
:101754003C005DF8044B70470220704700000140D4
:10176400002800F09B8070B50D4604464F4B1B6863
:1017740003F00F038B4208D2CBB24C4A13701368A8
:1017840003F00F038B4240F08B80236813F0020FA9
:1017940017D013F0040F04D0454A936843F4E05380
:1017A4009360236813F0080F04D0414A936843F40C
:1017B400604393603E4A936823F0F003A1680B43AF
:1017C4009360236813F0010F32D06368012B21D09A
:1017D4009A1E012A25D9364A126812F0020F61D0E6
:1017E40033498A6822F0030213438B6000F00AFF36
:1017F40006462F4B9B6803F00C036268B3EB820F21
:1018040016D000F0FFFE801B41F288339842F0D9D5
:10181400032042E0264A126812F4003FE0D101207E
:101824003BE0234A126812F0007FD9D1012034E052
:101834001E4B1B6803F00F03AB4207D9EAB21B4BE4
:101844001A701B6803F00F03AB422DD1236813F009
:10185400040F06D0164A936823F4E053E1680B435F
:101864009360236813F0080F07D0114A936823F498
:101874006043216943EAC103936000F021F80C4BF3
:101884009B68C3F303130B4AD35CD8400A4B18601C
:101894000A4B186800F06AFE002070BD01207047F2
:1018A4000120FAE70120F8E70120F6E7003C0240B6
:1018B40000380240ECD003085800002054000020F7
:1018C40008B5464B9B6803F00C03082B05D00C2B82
:1018D40043D0042B7FD1424819E0404B5A6802F0B0
:1018E4003F025B6813F4800F12D03C4B5968C1F37C
:1018F40088113B480023A1FB0001FEF781FC374B14
:101904005B68C3F3014301335B00B0FBF3F008BD34
:10191400324B5868C0F388104FEA401CBCEB000CF3
:101924006EEB0E0E4FEA8E1343EA9C634FEA8C1162
:10193400B1EB0C0163EB0E03DB0043EA5173C90006
:1019440011EB000C43F10003990200234FEA8C20B1
:1019540041EA9C51FEF754FCD1E7204B5A6802F04F
:101964003F025B6813F4800F10D01C4B5968C1F31D
:1019740088111B480023A1FB0001FEF741FC174B13
:101984005B68C3F30273B0FBF3F0C0E7134B586812
:10199400C0F388104FEA401CBCEB000C6EEB0E0E3B
:1019A4004FEA8E1343EA9C634FEA8C11B1EB0C01AE
:1019B40063EB0E03DB0043EA5173C90011EB000C27
:1019C40043F10003990200234FEA8C2041EA9C5121
:1019D400FEF716FCD3E7034899E700BF003802403E
:1019E40040787D010024F400002800F0018270B5E5
:1019F40082B00446036813F0010F41D0994B9B68F1
:101A040003F00C03042B32D0964B9B6803F00C03B9
:101A1400082B27D0934B9B6803F00C030C2B59D055
:101A24006368B3F5803F5BD0B3F5A02F5ED08D4BD8
:101A34001A6822F480321A601A6822F480221A602A
:101A44006368002B5CD000F0DDFD0546854B1B6808
:101A540013F4003F14D100F0D5FD401B6428F5D9E0
:101A64000320CCE17F4B5B6813F4800FD2D07D4B15
:101A74001B6813F4003F03D06368002B00F0BA81A5
:101A8400236813F0020F60D0764B9B6813F00C0FA1
:101A94004AD0744B9B6803F00C03082B3FD0714B66
:101AA4009B6803F00C030C2B69D0E368002B75D002
:101AB4006D4B01221A6000F0A5FD0546694B1B68B9
:101AC40013F0020F61D100F09DFD401B0228F5D9EF
:101AD400032094E1634B5B6813F4800FA0D0C6E746
:101AE400604A136843F480331360A9E75D4B1A68B6
:101AF40042F480221A601A6842F480321A609FE726
:101B040000F080FD0546574B1B6813F4003FB7D027
:101B140000F078FD401B6428F5D903206FE1514B98
:101B24005B6813F4800FBAD14E4B1B6813F0020F9D
:101B340003D0E368012B40F05F814A4A136823F025
:101B4400F803216943EAC1031360236813F0080F03
:101B540049D06369002B33D0434B0122C3F8802E54
:101B640000F050FD05463F4B5B6F13F0020F3AD176
:101B740000F048FD401B0228F5D903203FE1394B12
:101B84005B6813F4800F90D1CEE7364A136823F0D4
:101B9400F803216943EAC1031360D6E7324B0022FC
:101BA4001A6000F02FFD05462E4B1B6813F0020F40
:101BB400CBD000F027FD401B0228F5D903201EE1FD
:101BC400294B0022C3F8802E00F01CFD0546254B4E
:101BD4005B6F13F0020F06D000F014FD401B0228C7
:101BE400F5D903200BE1236813F0040F76D01D4BC5
:101BF4001B6C13F0805F33D100230193194B1A6CD3
:101C040042F080521A641B6C03F080530193019BD1
:101C14000125164B1B6813F4807F29D0A368012B80
:101C24003AD0052B3ED00F4B1A6F22F001021A67EF
:101C34001A6F22F004021A67A368002B3CD000F04C
:101C4400E1FC0646074B1B6F13F0020F45D100F071
:101C5400D9FC801B41F288339842F3D90320CEE0AB
:101C64000025D6E7003802400000474200700040DB
:101C74006B4A136843F48073136000F0C3FC064698
:101C8400674B1B6813F4807FC8D100F0BBFC801B3A
:101C94000228F5D90320B2E0624A136F43F001032E
:101CA4001367C9E75F4B1A6F42F004021A671A6F91
:101CB40042F001021A67BFE700F0A4FC0646594B44
:101CC4001B6F13F0020F08D000F09CFC801B41F244
:101CD40088339842F3D9032091E0EDB9A369002B2E
:101CE40000F08C804F4A926802F00C02082A54D00B
:101CF400022B17D04C4B00221A6600F083FC0446DA
:101D0400484B1B6813F0007F45D000F07BFC001BA0
:101D14000228F5D9032072E0424A136C23F0805361
:101D24001364DBE7404B00221A6600F06BFC0546A7
:101D34003C4B1B6813F0007F06D000F063FC401B93
:101D44000228F5D903205AE0E369226A1343626A40
:101D540043EA8213A26A5208013A43EA0243E26A5E
:101D640043EA0263226B43EA02732E4A53602E4B0A
:101D740001221A6600F046FC04462A4B1B6813F045
:101D8400007F06D100F03EFC001B0228F5D9032099
:101D940035E0002033E0002031E0012B31D0214B2D
:101DA4005B6803F48001E26991422CD103F03F02A5
:101DB400216A8A4229D1616A47F6C0721A40B2EB9D
:101DC400811F24D103F44031A26A5208013AB1EBD5
:101DD400024F1ED103F07062E16AB2EB016F1AD1B7
:101DE40003F0E043226BB3EB027F16D1002006E040
:101DF40001207047012002E0012000E0002002B031
:101E040070BD0120FBE70120F9E70120F7E701207D
:101E1400F5E70120F3E70120F1E70120EFE700BF38
:101E240000700040003802400000474200230F2B9E
:101E340000F2E38070B582B065E085684FEA430E36
:101E4400032404FA0EF425EA0405CC6804FA0EF41B
:101E54002C438460446824EA02044A68C2F30012F2
:101E64009A40224342605CE0DC08083450F82420A5
:101E740003F00705AD004FF00F0E0EFA05FE22EA3F
:101E84000E0E0A69AA4042EA0E0240F824205CE0E1
:101E9400062200E0002202FA0EF22A430234574DD1
:101EA40045F82420564A94686FEA0C0224EA0C058B
:101EB4004E6816F4801F01D04CEA0405504CA5600E
:101EC400E46802EA04054E6816F4001F01D04CEAE7
:101ED40004054B4CE560646802EA04054E6816F498
:101EE400003F01D04CEA0405454C6560246822405B
:101EF4004D6815F4803F01D04CEA0402404C226046
:101F040001330F2B77D801229A400C6804EA020CA3
:101F140032EA0404F4D14C6804F00304013C012CBB
:101F24008BD94A6802F00302032A09D0C4685D0011
:101F34000322AA4024EA02048A68AA402243C26017
:101F44004A6802F00302022A8ED004684FEA430E64
:101F5400032202FA0EF224EA02044A6802F003029F
:101F640002FA0EF2224302604A6812F4403FC7D0DC
:101F740000220192234A546C44F480445464526C09
:101F840002F480420192019A9C08A51C1B4A52F853
:101F9400255003F0030E4FEA8E0E0F2202FA0EF2C2
:101FA40025EA0205184A90423FF474AF02F58062B4
:101FB400904216D002F58062904214D002F58062FD
:101FC400904212D002F58062904210D002F58062F5
:101FD40090420ED002F5806290423FF459AF07223E
:101FE40059E7012257E7022255E7032253E7042267
:101FF40051E705224FE702B070BD70470038014039
:10200400003C0140003802400000024003691942CC
:1020140001D001207047002070470AB181617047E8
:10202400090481617047704708B5054B5B69034239
:1020340000D108BD024B5861FFF7F5FFF9E700BF77
:10204400003C014030B405682C6824F480242C60E2
:10205400046863608368402B05D003689960036853
:10206400DA6030BC704703689A600368D960F8E7A7
:1020740010B40368D9B210390A4AA2FB014212090A
:10208400094CA25CC2655F2907D96FF309030433C5
:102094008365806D5DF8044B70476FF309038365B6
:1020A400F7E700BFABAAAAAAE4D00308836A82694F
:1020B40092B9012B0AD0022B02D00BB10020704739
:1020C400C36A13F0807F28D100207047C36AB3F13C
:1020D400C07F24D000207047B2F5005F09D0022BE6
:1020E40025D9032B25D1C36A13F0807F23D1002087
:1020F4007047032B03D8DFE803F01404140A00200C
:102104007047C36A13F0807F0DD100207047C36A03
:10211400B3F1C07F09D0002070470120704701202F
:10212400704701207047012070470120704701204B
:1021340070470020704701207047000070B50446C6
:1021440000F060FA002C5BD00546022384F8353099
:10215400002384F834302268136823F001031360E9
:1021640023681A6812F0010F0AD000F04BFA431BDF
:10217400052BF5D920236365032084F8350070BD51
:102184001A68204911406268A0680243E06802436B
:102194002069024360690243A0690243E069024383
:1021A400206A02430A43616A04291ED01A60266821
:1021B400756925F00705636A1D43042B07D1A36ADB
:1021C4001D43E36A1BB12046FFF770FF90B97561A8
:1021D4002046FFF74DFFE26D3F23934083600020CC
:1021E4006065012384F83530C9E7E16A206B014357
:1021F4000A43DBE740236365012084F83500BEE72A
:102204000120BCE73F8010F038B50446856D90F896
:10221400340001282BD0012084F8340094F83500D0
:10222400C0B2012804D0002384F83430022038BD21
:10223400022084F83500002060652046FFF702FF85
:10224400E26D3F239340AB602268136843F01603AA
:102254001360236C23B12268136843F008031360EE
:102264002268136843F0010313600020DFE70220B3
:10227400DDE790F83530DBB2022B03D080234365D1
:1022840001207047052380F835300268136823F075
:102294000103136000207047F0B583B004460023A7
:1022A4000193724B1D68724BA3FB0535AD0A876D14
:1022B4003E68C26D08239340334210D003681A6805
:1022C40012F0040F0BD01A6822F004021A60C26DD7
:1022D40008239340BB60436D43F001034365E26D03
:1022E40001239340334209D02268526912F0800FCF
:1022F40004D0BB60636D43F002036365E26D0423A5
:102304009340334209D02268126812F0020F04D0BD
:10231400BB60636D43F004036365E26D1023934077
:10232400334224D02268126812F0080F1FD0BB6019
:1023340023681A6812F4802F0DD01B6813F4002F41
:1023440004D1236C9BB12046984710E0A36C73B171
:10235400204698470BE01A6812F4807F03D11A686C
:1023640022F008021A60236C0BB120469847E26DF4
:1023740020239340334255D02268126812F0100F84
:1023840050D0BB6094F83530DBB2052B0ED02368F7
:102394001A6812F4802F33D01B6813F4002F2AD14B
:1023A400636C002B3ED0204698473BE022681368BC
:1023B40023F0160313602268536923F080035361EA
:1023C400236CA3B12268136823F008031360E26D41
:1023D4003F239340BB60012384F83530002384F805
:1023E4003430236D002B3FD0204698473CE0A36C4B
:1023F400002BE7D1EBE7E36BA3B12046984711E04C
:102404001A6812F4807F09D11A6822F010021A6047
:10241400012384F83530002384F83430E36B0BB1A6
:1024240020469847636DFBB1636D13F0010F17D01D
:10243400052384F835302268136823F00103136000
:10244400019B01330193AB4204D823681B6813F04A
:10245400010FF5D1012384F83530002384F834309A
:10246400E36C0BB12046984703B0F0BD5800002040
:10247400B5814E1B002807DB00F01F024009012331
:102484009340024A42F82030704700BF00E100E068
:10249400002808DB0901C9B200F1604000F5614081
:1024A40080F80013704700F00F000901C9B2014B16
:1024B4001954704714ED00E000B500F00700C0F1B6
:1024C400070CBCF1040F28BF4FF0040C031D062BAE
:1024D4000FD9C31E4FF0FF3E0EFA0CF021EA0001A3
:1024E40099400EFA03FE22EA0E0241EA02005DF868
:1024F40004FB0023EEE70000074AD36823F4E063FB
:102504001B041B0C000200F4E060034343F0BF63B0
:1025140043F40033D360704700ED00E010B5044687
:10252400054BD868C0F30220FFF7C6FF01462046DA
:10253400FFF7AEFF10BD00BF00ED00E008B5FFF7E8
:1025440099FF08BD0138B0F1807F0BD24FF0E02332
:102554005861054AF02182F823100020986107226F
:102564001A6170470120704700ED00E010B5044681
:102574000E4B1A784FF47A73B3FBF2F30C4A1068DB
:10258400B0FBF3F0FFF7DEFF68B90F2C01D901208F
:102594000AE0002221464FF0FF30FFF7BFFF054B52
:1025A4001C60002000E0012010BD00BF500000208E
:1025B400580000205400002008B50B4B1A6842F460
:1025C40000721A601A6842F480621A601A6842F44F
:1025D40080721A600320FFF78FFF0F20FFF7C6FFFA
:1025E400FEF7BAFB002008BD003C0240034A116814
:1025F400034B1B780B441360704700BF700100202D
:1026040050000020014B1868704700BF7001002083
:10261400034AD2F8883043F47003C2F88830704714
:1026240000ED00E0DFF834D0FFF7F2FF0C480D496D
:102634000D4A002302E0D458C4500433C4188C4219
:10264400F9D30A4A0A4C002301E013600432A2427F
:10265400FBD300F019F8FEF79BF970470000022045
:10266400000000205C0000200CD103085C00002066
:1026740074010020FEE702440346934200D17047F0
:1026840003F8011BF9E7000070B50D4D0D4C641BF8
:10269400A4100026A64209D10B4D0C4C00F018F8EA
:1026A400641BA4100026A64205D170BD55F8043B56
:1026B40098470136EEE755F8043B98470136F2E7B0
:1026C40004D1030804D1030804D1030808D1030882
:1026D400F8B500BFF8BC08BC9E467047F8B500BF0B
:0826E400F8BC08BC9E467047DB
:1026EC0053696E650000000057617665666F726D08
:1026FC003A2053696E65000057617665666F726D9E
:10270C003A20536177746F6F746800005761766577
:10271C00666F726D3A20547269616E67756C617286
:10272C000000000057617665666F726D3A20447246
:10273C00756D000057617665666F726D3A2047754E
:10274C00697461720000000057617665666F726D86
:10275C003A205069616E6F00C8000000C80000008C
:10276C00C8000000C8000000C8000000C70000003E
:10277C00C7000000C7000000C7000000C800000030
:10278C00C7000000C8000000C8000000C80000001E
:10279C00B5000000F7000000050100002C0100004E
:1027AC006701000087000000D8000000F000000066
:1027BC00FB0000004701000061000000C7000000A2
:1027CC00CC000000DB0000000001000061000000F4
:1027DC00BC000000BD000000C2000000D9000000D9
:1027EC0064000000AD000000A5000000A90000007E
:1027FC00AA00000074000000A40000009C0000006F
:10280C009E0000009E000000940000009A00000052
:10281C00930000009600000099000000B200000038
:10282C0096000000950000009F000000A200000030
:10283C00D00000008F00000099000000A6000000EE
:10284C00B1000000E300000092000000A7000000AF
:10285C00B8000000C5000000F90000009300000063
:10286C00BA000000C5000000D9000000FF00000005
:10287C009F000000CE000000D6000000E700000022
:10288C0001010000AB000000D9000000DA000000DC
:10289C00EE000000F6000000B7000000DE000000B3
:1028AC00E0000000F2000000EE000000C400000098
:1028BC00DE000000DD000000EC000000DF00000086
:1028CC00CF000000DE000000D6000000D9000000A0
:1028DC00CE000000D3000000CF000000CC000000B0
:1028EC00CD000000C8000000DC000000C6000000A5
:1028FC00C8000000C6000000C7000000E700000090
:10290C00B9000000C2000000BF000000CA000000B7
:10291C00EA000000B0000000C1000000BD00000093
:10292C00CC000000E6000000A8000000BC00000085
:10293C00BD000000CF000000DC000000A60000007D
:10294C00BC000000BF000000CF000000D20000005F
:10295C00A8000000BE000000C2000000CE00000075
:10296C00CA000000AF000000BF000000C60000005D
:10297C00CA000000C3000000B8000000C100000045
:10298C00C7000000C8000000BF000000C30000002A
:10299C00C3000000CB000000C6000000C200000015
:1029AC00CE000000C3000000CB000000C6000000F9
:1029BC00C9000000D7000000C2000000C9000000E0
:1029CC00C6000000CE000000D9000000C0000000CE
:1029DC00C9000000C7000000D0000000DA000000B1
:1029EC00BE000000CA000000C8000000D1000000BA
:1029FC00D7000000BB000000C9000000C8000000A8
:102A0C00D0000000D4000000BB000000CA00000091
:102A1C00CA000000D0000000D0000000BC00000084
:102A2C00C7000000C8000000CD000000CC00000072
:102A3C00C0000000C5000000CA000000CC0000006F
:102A4C00C9000000C2000000C2000000C800000065
:102A5C00C9000000C6000000C4000000C200000055
:102A6C00C8000000C9000000C9000000C700000039
:102A7C00C0000000C6000000C7000000CB00000032
:102A8C00CB000000C0000000C7000000C600000022
:102A9C00CA000000CB000000BF000000C70000000F
:102AAC00C6000000CA000000CB000000C1000000FE
:102ABC00C9000000C7000000CC000000CB000000E3
:102ACC00C3000000C8000000C8000000CB000000DC
:102ADC00CA000000C4000000C8000000C8000000CC
:102AEC00CC000000CA000000C7000000C9000000B4
:102AFC00C8000000CD000000CA000000C8000000A3
:102B0C00C9000000C8000000CC000000CA00000092
:102B1C00CB000000C9000000C8000000C900000084
:102B2C00C9000000CB000000C8000000C700000076
:102B3C00C6000000C9000000CB000000C700000068
:102B4C00C7000000C5000000CB000000CB00000057
:102B5C00C6000000C6000000C6000000CB0000004C
:102B6C00C9000000C7000000C6000000C90000003A
:102B7C00CA000000C8000000C6000000C50000002C
:102B8C00C9000000C9000000C7000000C700000019
:102B9C00C4000000C8000000C8000000C60000000F
:102BAC00C7000000C5000000C8000000C6000000FF
:102BBC00C4000000C7000000C5000000C8000000F1
:102BCC00C5000000C5000000C8000000C6000000E1
:102BDC00C8000000C4000000C5000000C8000000D0
:102BEC00C6000000C7000000C4000000C5000000C3
:102BFC00C8000000C7000000C6000000C4000000B0
:102C0C00C6000000C8000000C7000000C70000009C
:102C1C00C6000000C8000000C7000000C70000008C
:102C2C00C8000000C7000000C8000000C70000007A
:102C3C00C8000000C8000000C9000000CA00000065
:102C4C00C9000000C8000000C8000000C900000056
:102C5C00CA000000CA000000C9000000C900000042
:102C6C00C9000000C9000000CB000000C700000034
:102C7C00CD000000D3000000D0000000D400000004
:102C8C00DD000000CB000000CF000000D2000000EF
:102C9C00D3000000DB000000C3000000CD000000EA
:102CAC00CF000000D2000000D6000000C2000000DF
:102CBC00CC000000D0000000D0000000D2000000CA
:102CCC00BC000000C9000000CC000000CD000000DA
:102CDC00CB000000BC000000C7000000CA000000D0
:102CEC00C8000000C6000000BB000000C5000000CA
:102CFC00C6000000C4000000C2000000BE000000BE
:102D0C00C5000000C5000000C3000000C1000000A9
:102D1C00C2000000C2000000C2000000C0000000A1
:102D2C00C0000000C4000000C0000000C100000092
:102D3C00C1000000C3000000C7000000BF0000007D
:102D4C00C0000000C1000000C5000000CA00000067
:102D5C00C1000000C2000000C4000000C900000057
:102D6C00CD000000C1000000C4000000C70000003E
:102D7C00CB000000CD000000C2000000C600000027
:102D8C00CA000000CD000000CF000000C30000000E
:102D9C00C8000000CC000000CE000000CF000000F6
:102DAC00C5000000CA000000CC000000CC000000F0
:102DBC00CC000000C6000000C8000000CA000000E3
:102DCC00C8000000C8000000C7000000C7000000D9
:102DDC00CA000000C8000000C8000000C9000000C4
:102DEC00C6000000C8000000C7000000C7000000BB
:102DFC00CA000000C6000000C7000000C7000000A9
:102E0C00C7000000CA000000C4000000C70000009A
:102E1C00C6000000C7000000CA000000C30000008C
:102E2C00C8000000C7000000C8000000CA00000075
:102E3C00C3000000C8000000C7000000C90000006B
:102E4C00C9000000C3000000C8000000C70000005B
:102E5C00C9000000C9000000C4000000C800000048
:102E6C00C7000000C7000000C7000000C50000003C
:102E7C00C9000000C7000000C7000000C600000029
:102E8C00C6000000C9000000C7000000C700000019
:102E9C00C6000000C7000000C7000000C70000000B
:102EAC00C6000000C6000000C8000000C6000000FC
:102EBC00C6000000C6000000C7000000C9000000EA
:102ECC00C6000000C8000000C8000000C8000000D8
:102EDC00CA000000C6000000C9000000C8000000C5
:102EEC00AF000000AF000000C5000000AD00000006
:102EFC001301000087000000E90000009C000000A6
:102F0C00EB0000000C010000D7000000AF00000037
:102F1C008F000000B9000000B60000000D01000099
:102F2C00C2000000F6000000B4000000AC0000007D
:102F3C00D9000000A8000000DA000000B800000072
:102F4C00DD000000CD000000E7000000AF00000035
:102F5C00C8000000B4000000A9000000E700000059
:102F6C00B2000000FA000000C7000000CC00000016
:102F7C00B0000000A7000000B7000000CB0000006C
:102F8C00EA000000C7000000E80000009C00000000
:102F9C00D1000000BB000000BF000000D200000008
:102FAC00AB000000D8000000D3000000EC000000D3
:102FBC00C4000000BC0000008F000000C000000036
:102FCC00DF000000E0000000F1000000A5000000A0
:102FDC00C1000000B6000000D2000000D0000000CC
:102FEC00C3000000B5000000C9000000E7000000AD
:102FFC00DA000000DC00000093000000AE000000CE
:10300C00BB000000E2000000FA000000CF0000004E
:10301C00BA000000AA000000C3000000C1000000BC
:10302C00D1000000B9000000D5000000D90000005C
:10303C00CF000000DA000000AD000000B600000078
:10304C00B7000000CA000000D8000000DB00000040
:10305C00C4000000C8000000C3000000B90000005C
:10306C00D1000000B2000000CD000000CB00000039
:10307C00D3000000D7000000C0000000B600000024
:10308C00B6000000C5000000CD000000E00000000C
:10309C00C3000000CB000000C2000000BE00000016
:1030AC00CC000000B8000000C5000000CC000000FF
:1030BC00D4000000D6000000CF000000B4000000D7
:1030CC00BC000000BF000000C5000000DC000000D8
:1030DC00C8000000D0000000CA000000C1000000C1
:1030EC00C9000000C1000000BC000000CA000000C4
:1030FC00CD000000D2000000D6000000BF00000090
:10310C00C2000000BE000000BF000000CE000000A6
:10311C00CC000000CC000000D1000000C500000075
:10312C00C7000000C6000000B7000000C800000087
:10313C00C6000000CF000000D6000000C600000052
:10314C00C1000000C2000000BE000000C60000006C
:10315C00C9000000D6000000D7000000CB00000022
:10316C00E4000000CF000000CE000000D6000000FC
:10317C00D000000007010000BC000000CF000000E0
:10318C00D6000000D800000009010000B9000000C2
:10319C00CC000000DE000000DB000000100100008D
:1031AC00B2000000C9000000DE000000D5000000E5
:1031BC00FC000000A8000000C6000000DF000000BA
:1031CC00D4000000F4000000AA000000C6000000BB
:1031DC00D4000000CD000000D0000000AF000000C3
:1031EC00BF000000D1000000CD000000C8000000AE
:1031FC00C4000000B7000000C7000000BF000000C2
:10320C00B9000000C8000000B5000000C2000000BA
:10321C00C1000000BE000000D2000000B1000000A0
:10322C00B4000000BA000000BA000000D600000094
:10323C00B0000000B7000000C2000000BF0000009A
:10324C00DE000000A9000000B7000000C000000074
:10325C00C0000000E1000000A9000000C300000055
:10326C00C8000000C8000000E2000000AE00000032
:10327C00C6000000C9000000CE000000DB0000000A
:10328C00BB000000C8000000CF000000CF00000011
:10329C00D3000000C5000000C8000000D5000000ED
:1032AC00D0000000D4000000CD000000C9000000D8
:1032BC00D1000000CC000000CF000000D5000000C1
:1032CC00CF000000CE000000CB000000CC000000BE
:1032DC00DA000000C5000000C9000000C6000000B4
:1032EC00C9000000E2000000BF000000C8000000A0
:1032FC00C1000000C5000000E1000000B6000000A5
:10330C00C4000000BF000000C6000000DB0000008D
:10331C00B4000000BF000000BE000000C4000000AC
:10332C00D0000000B6000000BD000000C500000089
:10333C00C5000000CD000000B9000000BA0000007C
:10334C00C4000000BE000000C7000000BB0000006D
:10335C00C2000000C9000000C2000000C50000004F
:10336C00BD000000C2000000C5000000C20000004B
:10337C00C4000000C7000000C8000000CB00000023
:10338C00C3000000C3000000CE000000C30000001A
:10339C00CC000000C2000000C7000000D8000000F4
:1033AC00C7000000CD000000C3000000C8000000F2
:1033BC00DA000000C5000000C8000000C8000000D2
:1033CC00CA000000D9000000C3000000D5000000B6
:1033DC00C6000000CD000000C1000000D3000000BA
:1033EC00B7000000F3000000B8000000EB00000084
:1033FC00A4000000D7000000BD000000E3000000A6
:10340C00C0000000D1000000C7000000D600000082
:10341C00D2000000BF000000C7000000BD0000008B
:10342C00D6000000C3000000DC000000BC0000005F
:10343C00D7000000BB000000D2000000B400000068
:10344C00D8000000BA000000E2000000B10000004B
:10345C00D9000000BC000000D4000000B80000003F
:10346C00CA000000BE000000D5000000C40000002F
:10347C00C7000000CA000000BA000000D90000001C
:10348C00AE000000D6000000B7000000DC00000019
:10349C00BC000000D1000000A9000000D900000011
:1034AC00B4000000DE000000AF000000D0000000FF
:1034BC00BE000000D8000000BF000000C9000000E2
:1034CC00B7000000CD000000C3000000CD000000DC
:1034DC00C7000000C3000000CE000000BC000000CC
:1034EC00CE000000B9000000D7000000B9000000B9
:1034FC00D6000000B5000000D4000000C20000009F
:10350C00C9000000C4000000C3000000CE00000091
:10351C00C7000000CA000000C3000000C700000084
:10352C00C9000000CA000000BF000000AD00000090
:10353C00C9000000A90000001A010000960000005C
:10354C00E8000000E1000000EA000000CD000000EF
:10355C0098000000B6000000A6000000F300000078
:10356C0096000000E2000000E8000000D900000016
:10357C00F1000000A0000000B9000000A70000004E
:10358C00D900000098000000D8000000E500000001
:10359C00DB000000F90000009F000000B8000000F4
:1035AC00A7000000C9000000A5000000D500000025
:1035BC00DF000000E1000000F6000000A1000000A8
:1035CC00B6000000AC000000BC000000B50000001C
:1035DC00D3000000DE000000E4000000F500000055
:1035EC009D000000B9000000AD000000BD0000000F
:1035FC00C9000000CC000000E1000000DA0000006F
:10360C00F0000000A0000000BA000000B0000000B4
:10361C00BC000000D9000000CB000000DE00000060
:10362C00DC000000DC000000A9000000BD00000070
:10363C00A2000000AA000000C7000000BC000000AF
:10364C00E0000000E6000000F5000000C4000000EF
:10365C00C6000000AB000000A7000000C80000007E
:10366C00AA000000D7000000E1000000EA00000002
:10367C00D3000000CE000000B5000000B90000002F
:10368C00BC0000009F000000D0000000D40000002F
:10369C00F4000000E0000000D3000000C1000000B6
:1036AC00B2000000C500000093000000C90000003B
:1036BC00CD000000E3000000F9000000D200000083
:1036CC00C9000000BB000000B30000009D0000001A
:1036DC00BC000000C4000000E7000000F700000080
:1036EC00D6000000CF000000B6000000B2000000C1
:1036FC009F000000BD000000C4000000E4000000BA
:10370C00F7000000D6000000CE000000B70000005B
:10371C00AA000000A3000000B9000000C5000000D2
:10372C00E6000000F1000000D2000000D100000013
:10373C00B8000000B0000000A8000000B6000000B7
:10374C00C5000000DF000000F6000000C80000000B
:10375C00D6000000B6000000B2000000B800000067
:10376C00B1000000C4000000D7000000DB00000026
:10377C00C4000000C7000000BC000000C300000033
:10378C00CD000000C3000000C4000000CE0000000B
:10379C00D1000000C2000000CB000000BB00000004
:1037AC00C8000000D0000000C1000000C8000000EC
:1037BC00C4000000CD000000C4000000CB000000DD
:1037CC00C4000000CE000000CE000000C2000000CB
:1037DC00C5000000C4000000CC000000C4000000C4
:1037EC00CB000000C7000000CF000000D600000096
:1037FC00BE000000C2000000BE000000C6000000B9
:10380C00CB000000C7000000C8000000CF00000083
:10381C00D5000000C3000000C0000000BD00000087
:10382C00C6000000CA000000CD000000C30000006C
:10383C00CF000000CE000000C2000000C500000058
:10384C00BA000000C8000000CB000000CA00000055
:10385C00CA000000C8000000CC000000C30000003B
:10386C00C6000000C4000000C4000000CC00000032
:10387C00C5000000CB000000C8000000CA0000001A
:10388C00C1000000C4000000C5000000C70000001B
:10389C00CD000000C6000000C4000000960000002F
:1038AC009A000000D800000014010000C4000000C1
:1038BC00A200000088000000B2000000E40000003C
:1038CC00EA000000DD000000A7000000AF000000CF
:1038DC00B1000000F500000001010000F70000003D
:1038EC0093000000A9000000D70000002F01000089
:1038FC00E4000000D2000000B0000000EB0000006B
:10390C00C1000000F9000000FC000000FC000000F9
:10391C0097000000C5000000F40000003301000017
:10392C00BF000000B5000000C10000000101000054
:10393C00CA000000ED000000F4000000E6000000EA
:10394C008E000000C1000000F9000000150100000D
:10395C00A5000000B2000000CA000000F200000048
:10396C00B6000000D7000000CE000000C30000002D
:10397C008B000000CF000000ED000000EA0000000A
:10398C008D000000A6000000BF000000D900000060
:10399C00B3000000C8000000BB000000B400000031
:1039AC0099000000D2000000D4000000C700000005
:1039BC0093000000B0000000C0000000D400000024
:1039CC00B9000000BC000000AD000000AD0000001C
:1039DC00BB000000D4000000C7000000B8000000CD
:1039EC00B4000000BB000000C0000000C3000000D9
:1039FC00CB000000C2000000BC000000C3000000AF
:103A0C00D5000000C3000000B8000000C00000009A
:103A1C00D2000000C8000000D9000000CD0000005A
:103A2C00E3000000BD000000BD000000C20000006B
:103A3C00DE000000C5000000CE000000DB0000002E
:103A4C00DD000000BF000000CD000000CC00000035
:103A5C00DF000000AF000000CA000000DC00000026
:103A6C00F1000000B2000000C9000000CA00000014
:103A7C00DA000000B6000000CB000000D20000000D
:103A8C00E2000000B8000000C6000000D3000000F7
:103A9C00D9000000B1000000D1000000C5000000FA
:103AAC00D7000000B6000000D1000000C6000000E6
:103ABC00CB000000AA000000D0000000D4000000E1
:103ACC00C9000000B3000000C4000000C7000000E3
:103ADC00C9000000B9000000CF000000C8000000C1
:103AEC00C8000000B1000000CD000000C9000000BB
:103AFC00CA000000B7000000C3000000CD000000A9
:103B0C00D0000000C7000000BF000000B60000009D
:103B1C00C0000000C1000000D7000000CD00000074
:103B2C00CC000000C5000000C6000000C100000071
:103B3C00C6000000C1000000C1000000C800000069
:103B4C00CD000000D7000000CD000000C400000034
:103B5C00BF000000C5000000C0000000CA0000004B
:103B6C00D2000000CA000000C9000000C80000001C
:103B7C00D1000000CB000000BB000000BF00000023
:103B8C00C6000000D2000000C3000000CE00000000
:103B9C00C9000000CE000000C0000000C3000000FF
:103BAC00C7000000C9000000C1000000C5000000F3
:103BBC00CC000000D2000000C3000000C6000000D2
:103BCC00C1000000C5000000BE000000C9000000DC
:103BDC00C6000000CF000000C1000000C8000000BB
:103BEC00C9000000C8000000C1000000C2000000B5
:103BFC00C3000000C3000000C6000000C8000000A5
:103C0C00CD000000CA000000BD000000C60000008E
:103C1C00BF000000C9000000C1000000C40000008B
:103C2C00C5000000CD000000CA000000C700000065
:103C3C00C4000000C3000000C2000000C20000006D
:103C4C00C6000000CE000000C9000000C800000043
:103C5C00C4000000C6000000C5000000C800000041
:103C6C00C4000000CA000000C8000000C900000029
:103C7C00CB000000C6000000C8000000C40000001B
:103C8C00CC000000CB000000CC000000C9000000FC
:103C9C00C8000000CB000000C6000000C9000000F6
:103CAC00CD000000CA000000C8000000CB000000DE
:103CBC00CC000000C9000000C8000000C4000000D7
:103CCC00C9000000CD000000CA000000CD000000BB
:103CDC00CC000000C6000000C4000000C9000000B9
:103CEC00C8000000CA000000C9000000C9000000A4
:103CFC00CB000000C9000000C6000000C800000096
:103D0C00C8000000C5000000CA000000C800000088
:103D1C00CA000000CA000000C7000000C600000076
:103D2C00C6000000C7000000C7000000C90000006A
:103D3C00C9000000CA000000CA000000C300000057
:103D4C00C5000000C7000000CA000000CC00000045
:103D5C00C8000000C8000000C7000000C800000038
:103D6C00C6000000C8000000C8000000C800000029
:103D7C00C7000000C9000000C9000000B40000002A
:103D8C00C2000000C8000000CE000000BA00000015
:103D9C00B7000000BF000000CD000000C200000012
:103DAC00C5000000BE000000BD000000BD0000000A
:103DBC00C9000000C9000000C9000000BC000000E0
:103DCC00BF000000C5000000CC000000CB000000CC
:103DDC00C6000000BF000000C0000000C8000000CA
:103DEC00CD000000CE000000C9000000C60000009D
:103DFC00C4000000CB000000CC000000D10000008B
:103E0C00C7000000C5000000CB000000D10000007E
:103E1C00CC000000CA000000C8000000CB0000006D
:103E2C00C6000000CC000000CF000000D300000052
:103E3C00C4000000C4000000CB000000D50000004E
:103E4C00C8000000C7000000C5000000CA00000048
:103E5C00C9000000CC000000CB000000CC0000002A
:103E6C00BD000000C8000000CD000000CF00000025
:103E7C00C2000000C4000000C4000000CC00000020
:103E8C00C5000000C9000000C6000000C70000000B
:103E9C00BE000000C9000000CB000000CB000000F9
:103EAC00C1000000C2000000C5000000CA000000F4
:103EBC00C3000000CA000000C7000000C8000000DA
:103ECC00C3000000C7000000C8000000C8000000CC
:103EDC00C5000000C7000000C7000000C8000000BB
:103EEC00C6000000CA000000C9000000C6000000A7
:103EFC00C3000000C8000000C8000000CA00000099
:103F0C00C5000000C7000000CA000000CA00000085
:103F1C00C6000000C6000000C7000000C80000007A
:103F2C00C9000000C8000000CA000000CA00000060
:103F3C00C9000000C6000000C8000000CA00000054
:103F4C00C9000000C6000000C7000000C900000046
:103F5C00CC000000C7000000C9000000C800000031
:103F6C00CA000000C8000000CA000000CA0000001F
:103F7C00C9000000C6000000C8000000C900000015
:103F8C00CC000000C7000000C9000000C800000001
:103F9C00C8000000C6000000C9000000CA000000F4
:103FAC00CA000000C6000000C8000000C7000000E6
:103FBC00CB000000C6000000C8000000C6000000D6
:103FCC00C7000000C9000000C8000000C6000000C7
:103FDC00C7000000C6000000C8000000C7000000B9
:103FEC00C8000000C6000000C8000000C5000000AA
:103FFC00C6000000C8000000C8000000C50000009A
:10400C00C8000000C7000000C9000000C500000087
:10401C00C7000000C6000000C8000000C600000079
:10402C00C8000000C8000000C8000000C400000068
:10403C00C9000000C7000000C8000000C600000056
:10404C00C7000000C9000000C7000000C700000046
:10405C00C8000000C9000000C7000000C700000035
:10406C00C8000000C9000000C6000000C700000026
:10407C00C7000000C9000000C5000000C800000017
:10408C00CA000000C8000000C6000000C600000006
:10409C00C8000000C9000000C6000000C8000000F5
:1040AC00C7000000C9000000C6000000C9000000E5
:1040BC00C9000000C8000000C5000000C5000000D9
:1040CC00C8000000C9000000C7000000C8000000C4
:1040DC00C8000000C7000000C6000000C8000000B7
:1040EC00C9000000C4000000C5000000C8000000AA
:1040FC00CA000000C9000000C5000000C700000095
:10410C00C7000000C6000000C7000000C800000087
:10411C00C9000000C5000000C6000000C800000077
:10412C00C8000000C6000000C4000000C800000069
:10413C00C9000000C7000000C7000000C700000055
:10414C00C7000000C6000000C7000000C800000047
:10415C00C7000000C7000000C4000000C900000038
:10416C00C9000000C8000000C7000000C600000025
:10417C00C7000000C7000000C9000000C400000018
:10418C00C6000000C9000000C8000000C900000003
:10419C00C6000000C6000000C8000000C6000000F9
:1041AC00C4000000C8000000CA000000C8000000E5
:1041BC00C9000000C5000000C7000000C6000000D8
:1041CC00C7000000C5000000C8000000C8000000C7
:1041DC00C9000000CB000000C5000000C7000000B3
:1041EC00C6000000C8000000C7000000C8000000A6
:1041FC00CA000000C9000000CA000000C500000091
:10420C00C6000000C7000000C7000000C800000086
:10421C00C8000000C8000000CA000000C90000006F
:10422C00C6000000C7000000C7000000C700000067
:10423C00C8000000C9000000C8000000C900000050
:10424C00C8000000C6000000C8000000C600000046
:10425C00C7000000C9000000C6000000C800000034
:10426C00F3000000EF000000C40000009F000000FD
:10427C00A4000000D8000000F0000000DF000000E7
:10428C00B30000009F000000B4000000DE0000003E
:10429C00F2000000D2000000AA000000A100000003
:1042AC00BF000000E8000000E8000000C7000000AC
:1042BC00A7000000AA000000CC000000EB000000EA
:1042CC00E0000000B9000000A3000000B4000000F2
:1042DC00DA000000EB000000D5000000B600000082
:1042EC00A8000000BB000000DB000000E3000000A1
:1042FC00CE000000B1000000B0000000C8000000BB
:10430C00E0000000DD000000C3000000AE00000073
:10431C00B2000000CD000000E0000000D900000059
:10432C00C2000000B1000000BC000000D200000080
:10433C00DC000000D0000000BB000000B400000056
:10434C00C3000000D6000000DB000000CC00000021
:10435C00BA000000B7000000C6000000D400000046
:10436C00D5000000C9000000BA000000BE0000002B
:10437C00CC000000D5000000D1000000C2000000FD
:10438C00BA000000C1000000CE000000D300000005
:10439C00CF000000C5000000C4000000C5000000F4
:1043AC00C5000000C8000000CA000000CA000000E0
:1043BC00C8000000C6000000C6000000C7000000D6
:1043CC00CA000000C9000000C7000000C5000000C2
:1043DC00C7000000C8000000C9000000C8000000B1
:1043EC00C7000000C7000000C6000000C8000000A5
:1043FC00C8000000C8000000C6000000C900000092
:10440C00C8000000C7000000C7000000C800000082
:10441C00C9000000C7000000C7000000C700000072
:10442C00C8000000C7000000C8000000C900000060
:10443C00C6000000C5000000C6000000C900000056
:10444C00C9000000C8000000C7000000C700000041
:10445C00C7000000C8000000C9000000CA0000002E
:10446C00C6000000C5000000C7000000C900000025
:10447C00C9000000C9000000C7000000C600000011
:10448C00C6000000C9000000CA000000C9000000FE
:10449C00C6000000C6000000C7000000C7000000F6
:1044AC00C9000000C8000000C7000000C6000000E2
:1044BC00C7000000CA000000C9000000C8000000CE
:1044CC00C6000000C6000000C60000008C00000002
:1044DC00DF000000D2000000EF00000054000000DC
:1044EC009E000000D7000000140100007F000000B7
:1044FC0095000000A1000000D30000008E00000019
:10450C00CC000000C4000000B600000066000000F3
:10451C00AB000000D6000000D200000084000000B8
:10452C0097000000AF000000C6000000AE000000C5
:10453C00C0000000B6000000A000000099000000C0
:10454C00C5000000DF000000C2000000A200000057
:10455C00A6000000C9000000CF000000D40000003D
:10456C00C2000000BE000000B0000000D50000003A
:10457C00D6000000E4000000BE000000C7000000F0
:10458C00BE000000E0000000E1000000EB000000B5
:10459C00BD000000C5000000C7000000F8000000CE
:1045AC00DA000000DC000000BE000000E0000000AB
:1045BC00C8000000E7000000DE000000EA00000078
:1045CC00B2000000C9000000D7000000FF0000008E
:1045DC00C8000000C6000000BF000000E40000009E
:1045EC00C5000000DD000000D3000000D800000072
:1045FC00AA000000CA000000D5000000EA0000007C
:10460C00B2000000BC000000BD000000DA00000099
:10461C00BE000000CD000000C1000000C60000007C
:10462C00A9000000CA000000D0000000D400000067
:10463C00A7000000B9000000BE000000D20000007E
:10464C00B9000000C8000000BA000000C000000063
:10465C00AF000000CD000000C9000000C600000043
:10466C00AC000000BE000000C4000000CE00000042
:10467C00BF000000C3000000BA000000BD00000035
:10468C00C1000000D0000000C8000000C100000004
:10469C00BE000000C6000000C6000000CC000000F8
:1046AC00CD000000C5000000BA000000C5000000ED
:1046BC00D5000000CF000000C2000000C3000000C5
:1046CC00CE000000CA000000C8000000CE000000B0
:1046DC00D5000000C3000000BF000000CE000000A9
:1046EC00DC000000C7000000C2000000C900000090
:1046FC00D7000000C6000000C9000000CE0000007A
:10470C00D1000000BF000000C8000000D000000075
:10471C00D3000000BE000000C5000000CB0000006C
:10472C00CF000000C1000000CA000000C80000005B
:10473C00C9000000BE000000CA000000D700000045
:10474C00B000000009010000D90000009D0000002D
:10475C007B00000014010000F4000000A300000026
:10476C0064000000D9000000D7000000B300000076
:10477C009E000000CF000000B50000007F0000008C
:10478C00AB000000DC000000D50000006F00000052
:10479C009D000000AD000000E90000009400000046
:1047AC00BF00000092000000BE0000008900000065
:1047BC00E1000000BE000000CE0000008000000000
:1047CC00BD000000BB000000E2000000B5000000CE
:1047DC00C1000000A8000000BB000000CF000000DA
:1047EC00DC000000CD000000AF000000C3000000A2
:1047FC00C4000000E2000000D2000000E60000004F
:10480C00B4000000C5000000C00000000201000060
:10481C00D6000000D1000000AD000000E800000050
:10482C00D4000000E3000000D4000000E50000000C
:10483C00BE000000BF000000E2000000FF0000000E
:10484C00DB000000AA000000CD000000E400000026
:10485C00E7000000C4000000E1000000CE000000F2
:10486C00C6000000B5000000F1000000E7000000E9
:10487C00C6000000A3000000CD000000E500000011
:10488C00CE000000BE000000C8000000CB000000FD
:10489C00B7000000C4000000DA000000D4000000E3
:1048AC00AA000000AF000000CC000000D9000000FE
:1048BC00BE000000B8000000BF000000C1000000F6
:1048CC00B9000000C4000000CD000000BF000000D3
:1048DC00AE000000B9000000CD000000CC000000CC
:1048EC00BF000000B6000000BD000000BE000000CC
:1048FC00C8000000C8000000C6000000B70000009F
:10490C00C0000000C2000000CD000000C400000088
:10491C00C8000000BB000000C3000000C200000083
:10492C00D9000000C6000000C3000000B900000060
:10493C00D4000000C9000000CD000000C100000040
:10494C00D7000000BF000000C9000000C800000034
:10495C00E1000000C1000000C6000000C40000001F
:10496C00DF000000C7000000CC000000C800000001
:10497C00D5000000BF000000CC000000D0000000FB
:10498C00D9000000BE000000C4000000CD000000F3
:10499C00D7000000C2000000C7000000CB000000E0
:1049AC00CE000000BF000000CB000000B7000000EC
:1049BC00C5000000D9000000940000009500000024
:1049CC00A300000008010000D1000000C20000009C
:1049DC00FF000000AE000000CF000000A5000000AA
:1049EC00BA000000C8000000CB000000E900000085
:1049FC00A4000000E0000000E30000008A000000BA
:104A0C00C1000000CE000000EB000000960000008A
:104A1C00BF000000F700000090000000B50000008F
:104A2C00DB000000E6000000B6000000AF00000054
:104A3C00FA000000A0000000A1000000C10000006E
:104A4C00C5000000DE000000C6000000FA000000F7
:104A5C00C1000000AF000000B50000009000000095
:104A6C00D3000000D0000000D9000000E5000000D9
:104A7C00D7000000DF00000083000000B900000038
:104A8C00C1000000A7000000CB000000F1000000F6
:104A9C0007010000B8000000BC000000D8000000B6
:104AAC0090000000A8000000C8000000FB000000FF
:104ABC00D7000000CF000000F6000000BE00000090
:104ACC00AE000000AC000000B7000000D9000000F0
:104ADC00C9000000ED000000D9000000DD0000005E
:104AEC00C50000009C000000CD000000D6000000B6
:104AFC00CC000000C3000000D6000000E60000005F
:104B0C009D000000C8000000DA000000CA00000090
:104B1C00B7000000CE000000EE000000BA0000005C
:104B2C00B4000000DA000000BF000000C600000066
:104B3C00BA000000E3000000C7000000BE00000047
:104B4C00C6000000BC000000CA000000C800000045
:104B5C00C2000000D4000000C6000000CF0000001E
:104B6C00AF000000CE000000CA000000B30000003F
:104B7C00C7000000D8000000D6000000B6000000FE
:104B8C00C2000000D9000000B1000000BC00000011
:104B9C00D1000000D8000000C1000000C0000000DF
:104BAC00DB000000BB000000BA000000C9000000E0
:104BBC00CE000000CB000000C2000000D1000000BD
:104BCC00C9000000C3000000C3000000BA000000D0
:104BDC00CE000000CE000000C5000000C90000009F
:104BEC00CD000000CE000000B5000000C7000000A2
:104BFC00D2000000C0000000BF000000CE0000008A
:104C0C00D6000000BC000000BC000000D300000077
:104C1C00C0000000BF000000C8000000FE00000043
:104C2C00B3000000B500000074000000CC000000D0
:104C3C00EB000000F3000000CB0000009D00000022
:104C4C00E9000000BB000000E6000000D0000000FE
:104C5C008D000000B1000000C70000000E01000034
:104C6C00D7000000C9000000BF0000007500000064
:104C7C00BB000000E8000000FA000000C0000000CB
:104C8C00A3000000DF000000AD000000CE0000001B
:104C9C00CD000000AC000000B4000000B900000022
:104CAC0000010000D0000000C4000000B3000000B0
:104CBC0090000000C5000000DA000000ED000000CC
:104CCC00C3000000AE000000CA000000A2000000FB
:104CDC00DA000000D4000000C3000000B4000000A3
:104CEC00B8000000E8000000C2000000CC0000008A
:104CFC00C4000000A6000000BF000000D6000000A9
:104D0C00EF000000C6000000B3000000C800000067
:104D1C00AC000000D5000000D7000000D900000056
:104D2C00BA000000BE000000DC000000CC00000057
:104D3C00C8000000CC000000B2000000CB00000056
:104D4C00CF000000E8000000CB000000C200000013
:104D5C00C5000000B2000000CF000000DA00000027
:104D6C00D1000000C4000000C4000000DC00000002
:104D7C00B7000000C3000000CE000000C900000016
:104D8C00C9000000CC000000DB000000C0000000E7
:104D9C00BB000000CD000000BE000000CF000000F2
:104DAC00CA000000D2000000C3000000C5000000D3
:104DBC00CD000000BD000000C4000000CC000000CD
:104DCC00C2000000CB000000C7000000D7000000AC
:104DDC00BA000000C2000000C7000000BC000000C8
:104DEC00C7000000D2000000D7000000C200000085
:104DFC00BF000000CC000000BB000000C50000009C
:104E0C00CC000000CB000000C7000000C800000070
:104E1C00D2000000BF000000C1000000C70000006D
:104E2C00C0000000C6000000CD000000D100000052
:104E3C00C5000000C2000000CA000000C000000055
:104E4C00C4000000CB000000C9000000C900000035
:104E5C00C7000000CF000000BE000000C200000030
:104E6C00CA000000C2000000C9000000CC00000015
:104E7C00D3000000C3000000BF000000C900000008
:104E8C00C2000000C7000000CD000000DD000000E3
:104E9C0002010000E8000000F60000007B010000A9
:104EAC00C9000000F700000002010000030100002F
:104EBC0074010000A6000000F5000000E7000000EF
:104ECC00EF000000390100009B000000F900000019
:104EDC00EB000000F60000001E0100008100000045
:104EEC00E1000000D7000000D9000000E400000041
:104EFC008A000000E2000000CB000000C9000000A6
:104F0C00C600000090000000C2000000B7000000C6
:104F1C00B8000000A9000000A5000000BD000000C2
:104F2C00B0000000B000000098000000B9000000C4
:104F3C00A6000000AC000000A60000009A000000D3
:104F4C00D3000000A6000000AB000000A30000008E
:104F5C00A7000000E600000099000000B50000006A
:104F6C00AA000000B8000000F2000000A70000003A
:104F7C00BB000000B0000000C9000000FD000000F4
:104F8C00A3000000C6000000C2000000DC0000000E
:104F9C00F5000000A9000000CE000000CE000000CB
:104FAC00DD000000F0000000AF000000DA0000009F
:104FBC00DC000000E1000000E3000000BA0000008B
:104FCC00DB000000D6000000D9000000D400000077
:104FDC00BE000000D1000000D4000000CB00000097
:104FEC00C1000000C8000000D4000000D200000086
:104FFC00C2000000BF000000D9000000C700000084
:10500C00C9000000C2000000C0000000E500000064
:10501C00BF000000C4000000B7000000C200000088
:10502C00E6000000B7000000C1000000B80000005E
:10503C00C5000000E2000000B0000000BF0000004E
:10504C00B4000000C8000000DD000000AD0000004E
:10505C00C6000000C0000000CB000000D100000022
:10506C00AE000000C5000000C3000000CB00000033
:10507C00D1000000B4000000C6000000C300000016
:10508C00C7000000CA000000B8000000C800000003
:10509C00C9000000C8000000CB000000C2000000E6
:1050AC00C8000000CB000000C9000000CA000000CE
:1050BC00CF000000CA000000CA000000C8000000B9
:1050CC00CD000000D5000000C4000000CB000000A3
:1050DC00CC000000D1000000DB000000C800000084
:1050EC00CF000000C7000000CF000000DB00000074
:1050FC00C4000000CC000000C6000000D30000007B
:10510C00D5000000C6000000C8000000CB00000065
:10511C00D3000000CD000000BF000000CB00000059
:10512C00D1000000D0000000CF000000BF00000044
:10513C00BD000000C5000000D1000000D20000003E
:10514C00C5000000C1000000C9000000C200000042
:10515C00C7000000C5000000C3000000C50000002F
:10516C00C5000000CC000000C7000000C10000001A
:10517C00C4000000BA000000C4000000CA00000017
:10518C00CA000000C6000000C1000000BF00000003
:10519C00C1000000C1000000C7000000C2000000F8
:1051AC00C1000000C7000000C7000000C3000000E1
:1051BC00C2000000C1000000C6000000C0000000DA
:1051CC00CA000000CB000000CB000000CA000000A9
:1051DC00C1000000C1000000C6000000CC000000AF
:1051EC00CD000000C5000000C8000000CA0000008F
:1051FC00CB000000CB000000C7000000C400000082
:10520C00C4000000CD000000D2000000CE00000061
:10521C00C9000000C7000000C6000000CA00000062
:10522C00CE000000CC000000C9000000C800000047
:10523C00CA000000CC000000C8000000CA0000003A
:10524C00C5000000C9000000D0000000CD00000027
:10525C00CA000000C6000000C9000000CA0000001F
:10526C00C3000000CA000000C9000000CC00000010
:10527C00CB000000C7000000C8000000C700000001
:10528C00C5000000C6000000C3000000C8000000FC
:10529C00C8000000C8000000C9000000C4000000E5
:1052AC00C3000000C4000000C8000000C7000000DC
:1052BC00C3000000C6000000C8000000C8000000C9
:1052CC00C5000000C8000000C7000000C4000000BA
:1052DC00C6000000C5000000C7000000C6000000AA
:1052EC00C6000000C6000000C6000000C900000097
:1052FC00C4000000C6000000C4000000C60000008E
:10530C00C7000000C7000000C7000000C400000078
:10531C00C8000000C7000000C5000000C600000067
:10532C00C6000000C8000000C9000000C800000052
:10533C00CA000000C6000000C7000000C700000043
:10534C00C8000000C7000000CA000000CA0000002E
:10535C00CA000000C7000000C8000000C800000020
:10536C00C6000000C6000000C9000000CF0000000D
:10537C00CE000000CA000000CF000000D1000000E9
:10538C00CB000000CB000000D1000000D1000000D9
:10539C00D8000000C7000000D2000000CE000000C2
:1053AC00D1000000D8000000CA000000CC000000B2
:1053BC00D2000000D4000000DE000000C10000009C
:1053CC00CB000000CF000000D2000000D100000094
:1053DC00BE000000CE000000D3000000CD00000095
:1053EC00CD000000BD000000CB000000CA00000092
:1053FC00C7000000CA000000C1000000C900000086
:10540C00C9000000C9000000C8000000BC0000007A
:10541C00C4000000C5000000C5000000C200000070
:10542C00C3000000C7000000C5000000C000000061
:10543C00C2000000C4000000C2000000BE0000005A
:10544C00C3000000C4000000CB000000BF0000003F
:10545C00C2000000C2000000C3000000C800000031
:10546C00BD000000C3000000C6000000C500000025
:10547C00CD000000BE000000C4000000C40000000D
:10548C00C7000000CD000000BE000000C9000000F5
:10549C00C8000000C9000000CD000000C1000000E1
:1054AC00C8000000C6000000C9000000CB000000CE
:1054BC00C3000000CA000000C8000000C9000000C2
:1054CC00C8000000C4000000C9000000C8000000B3
:1054DC00C8000000C9000000C9000000CB0000009B
:1054EC00C7000000C8000000C8000000C800000091
:1054FC00C6000000C7000000C8000000C900000082
:10550C00CA000000C8000000C7000000C500000071
:10551C00C7000000CB000000C6000000C700000060
:10552C00C6000000C8000000C9000000C300000055
:10553C00C6000000C5000000C6000000C900000045
:10554C00C3000000C6000000C7000000C600000039
:10555C00C9000000C2000000C6000000C600000028
:10556C00C6000000CA000000C2000000C700000016
:10557C00C7000000C7000000C8000000C300000006
:10558C00C7000000C6000000C7000000C9000000F2
:10559C00C4000000C7000000C5000000C7000000E8
:1055AC00C7000000C7000000C9000000C6000000D2
:1055BC00C8000000C7000000C8000000C7000000C1
:1055CC00C6000000C9000000C8000000CB000000AD
:1055DC00C8000000C7000000C8000000BA000000AE
:1055EC00D900000014010000E8000000B900000020
:1055FC007C00000099000000E1000000E9000000C0
:10560C0024010000AC000000C2000000BC0000003F
:10561C008D000000EF0000009B000000E80000007F
:10562C00E9000000B90000000D010000910000002D
:10563C00CD000000BA00000097000000F000000050
:10564C00A8000000FF000000E9000000B900000005
:10565C00D200000077000000C2000000D300000060
:10566C00DF000000FA000000AB000000C6000000E4
:10567C00C1000000C4000000D3000000A80000001E
:10568C00BA000000D3000000EC000000EB000000AA
:10569C00C2000000A1000000A3000000C600000032
:1056AC00DA000000ED000000C7000000C60000009A
:1056BC00C9000000B3000000D5000000AE000000DF
:1056CC00C4000000D0000000C4000000F600000080
:1056DC00BA000000CB000000B80000009C000000E5
:1056EC00D9000000B5000000EC000000DF00000055
:1056FC00B9000000D400000097000000CA000000B0
:10570C00D1000000C2000000E0000000AD0000006D
:10571C00D3000000CF000000BD000000CF0000004F
:10572C00A7000000C4000000CF000000D200000061
:10573C00E3000000BD000000BF000000BB00000043
:10574C00BF000000D0000000C6000000CD0000002B
:10575C00D0000000D1000000CA000000BF00000013
:10576C00B3000000BF000000CE000000D20000001B
:10577C00DD000000C1000000C5000000C4000000F6
:10578C00BA000000CE000000B8000000CC00000001
:10579C00D6000000CA000000DF000000B5000000C9
:1057AC00BE000000BF000000BC000000E0000000D4
:1057BC00C2000000D3000000CC000000BB000000C1
:1057CC00D5000000B3000000C9000000C7000000B5
:1057DC00C3000000E0000000C0000000D00000008A
:1057EC00C1000000BB000000D1000000BB000000A5
:1057FC00D1000000CC000000CC000000D100000063
:10580C00BC000000C6000000C4000000C90000007D
:10581C00CD000000C9000000C9000000C900000054
:10582C00CB000000C5000000C5000000BF00000058
:10583C00C7000000D4000000CA000000D100000026
:10584C00BF000000C1000000C6000000E70000001F
:10585C00D9000000E0000000BC000000C200000005
:10586C00E9000000D2000000E1000000C4000000CC
:10587C00F7000000CD000000CD000000E4000000A7
:10588C00C50000000C010000C9000000CB000000A6
:10589C00E8000000D400000021010000B40000006A
:1058AC00C6000000E0000000D80000001701000056
:1058BC00AC000000C9000000E0000000E0000000A7
:1058CC000E010000A0000000C4000000D200000087
:1058DC00DC000000F1000000A2000000C700000086
:1058EC00CF000000D7000000DE000000A500000083
:1058FC00C2000000C6000000CD000000C600000081
:10590C00AE000000C3000000BC000000C40000009A
:10591C00B9000000BE000000BB000000B200000097
:10592C00BB000000AD000000CB000000B500000083
:10593C00B0000000B9000000AA000000D800000070
:10594C00AB000000B1000000B9000000AB0000008B
:10595C00DA000000A5000000B7000000BB0000004A
:10596C00B6000000E1000000A6000000BB00000033
:10597C00BD000000BE000000DE000000AC00000016
:10598C00C3000000C5000000C7000000DE000000DE
:10599C00B3000000C8000000C9000000CD000000EA
:1059AC00D9000000BC000000CE000000CF000000B9
:1059BC00D2000000D3000000C8000000D30000009B
:1059CC00D3000000D3000000CC000000D300000086
:1059DC00D0000000D0000000D1000000CD0000007D
:1059EC00E0000000CE000000CF000000CE00000060
:1059FC00CB000000E4000000C9000000CE00000055
:105A0C00CC000000CD000000E4000000C30000004A
:105A1C00C8000000CA000000CD000000E00000003B
:105A2C00BE000000C4000000C9000000CA00000055
:105A3C00DA000000B7000000C1000000C90000003F
:105A4C00C7000000D4000000B8000000C100000036
:105A5C00C7000000C3000000CB000000B90000002C
:105A6C00C2000000C9000000C1000000C20000001C
:105A7C00BD000000C3000000C8000000BC00000016
:105A8C00BE000000C1000000C3000000C800000000
:105A9C00BC000000BB000000C6000000C2000000FB
:105AAC00C7000000BE000000BE000000CB000000DC
:105ABC00C1000000C4000000AF000000E1000000C5
:105ACC00AF000000DE000000B1000000D3000000B9
